{
  "transactions": [
    {
      "hash": "0x4afa1eee35c6085b5d03029601f5383c7135ae3ede2f76b4e93a9a5e0e5d6b27",
      "transactionType": "CREATE",
      "contractName": "ArisanChain",
      "contractAddress": "0x5fbdb2315678afecb367f032d93f642f64180aa3",
      "function": null,
      "arguments": [
        "1000000000000000000"
      ],
      "transaction": {
        "from": "0xf39fd6e51aad88f6f4ce6ab8827279cfffb92266",
        "to": null,
        "gas": "0x10122b",
        "value": "0x0",
        "input": "0x608060405234801561000f575f80fd5b50604051610d7e380380610d7e83398101604081905261002e91610092565b5f811161006f5760405162461bcd60e51b815260206004820152600b60248201526a414d4f554e545f5a45524f60a81b604482015260640160405180910390fd5b5f80546001600160a01b031916331790556001556002805460ff191690556100a9565b5f602082840312156100a2575f80fd5b5051919050565b610cc8806100b65f395ff3fe6080604052600436106100ef575f3560e01c8063b5b96ae011610087578063d7bb99ba11610057578063d7bb99ba146102a4578063e278fe6f146102ac578063f14cf045146102c0578063f851a440146102f7575f80fd5b8063b5b96ae014610210578063be9a655514610249578063c19d93fb1461025f578063ca6d56dc14610285575f80fd5b80638a568299116100c25780638a568299146101835780639298636f146101985780639eab5253146101c1578063a230c524146101e2575f80fd5b80634ba2363a146100f35780635fa0b65f1461011b57806367327ecc146101305780638a19c8bc1461016e575b5f80fd5b3480156100fe575f80fd5b5061010860095481565b6040519081526020015b60405180910390f35b348015610126575f80fd5b5061010860015481565b34801561013b575f80fd5b5061015e61014a366004610b53565b60056020525f908152604090205460ff1681565b6040519015158152602001610112565b348015610179575f80fd5b5061010860075481565b34801561018e575f80fd5b5061010860085481565b3480156101a3575f80fd5b506101ac610315565b60408051928352602083019190915201610112565b3480156101cc575f80fd5b506101d5610392565b6040516101129190610b73565b3480156101ed575f80fd5b5061015e6101fc366004610b53565b60046020525f908152604090205460ff1681565b34801561021b575f80fd5b5061015e61022a366004610bbf565b600660209081525f928352604080842090915290825290205460ff1681565b348015610254575f80fd5b5061025d6103f2565b005b34801561026a575f80fd5b506002546102789060ff1681565b6040516101129190610bfd565b348015610290575f80fd5b5061025d61029f366004610b53565b610526565b61025d6106e8565b3480156102b7575f80fd5b5061025d61089f565b3480156102cb575f80fd5b506102df6102da366004610c23565b610ac3565b6040516001600160a01b039091168152602001610112565b348015610302575f80fd5b505f546102df906001600160a01b031681565b6003545f90815b8181101561038d5760065f60075481526020019081526020015f205f6003838154811061034b5761034b610c3a565b5f9182526020808320909101546001600160a01b0316835282019290925260400190205460ff161561038557610382600184610c62565b92505b60010161031c565b509091565b606060038054806020026020016040519081016040528092919081815260200182805480156103e857602002820191905f5260205f20905b81546001600160a01b031681526001909101906020018083116103ca575b5050505050905090565b5f546001600160a01b0316331461043c5760405162461bcd60e51b81526020600482015260096024820152682727aa2fa0a226a4a760b91b60448201526064015b60405180910390fd5b5f6002805460ff169081111561045457610454610be9565b1461048d5760405162461bcd60e51b815260206004820152600960248201526804e4f545f53455455560bc1b6044820152606401610433565b600354600211156104d15760405162461bcd60e51b815260206004820152600e60248201526d4e4545445f325f4d454d4245525360901b6044820152606401610433565b60035460088190556002805460ff19166001908117909155546040805192835260208301919091527f20f56a90cb3179448dd56850a193dc824d30149cae0f0f3507dd89dfd9e91a2c910160405180910390a1565b5f546001600160a01b0316331461056b5760405162461bcd60e51b81526020600482015260096024820152682727aa2fa0a226a4a760b91b6044820152606401610433565b5f6002805460ff169081111561058357610583610be9565b146105bc5760405162461bcd60e51b815260206004820152600960248201526804e4f545f53455455560bc1b6044820152606401610433565b6001600160a01b0381166106015760405162461bcd60e51b815260206004820152600c60248201526b5a45524f5f4144445245535360a01b6044820152606401610433565b6001600160a01b0381165f9081526004602052604090205460ff161561065a5760405162461bcd60e51b815260206004820152600e60248201526d20a62922a0a22cafa6a2a6a122a960911b6044820152606401610433565b6003805460018082019092557fc2575a0e9e593c00f959f8c92f12db2869c3395a3b0502d05e2516446f71f85b0180546001600160a01b0319166001600160a01b0384169081179091555f81815260046020526040808220805460ff1916909417909355915190917fb251eb052afc73ffd02ffe85ad79990a8b3fed60d76dbc2fa2fdd7123dffd91491a250565b335f9081526004602052604090205460ff166107335760405162461bcd60e51b815260206004820152600a6024820152692727aa2fa6a2a6a122a960b11b6044820152606401610433565b60016002805460ff169081111561074c5761074c610be9565b146107865760405162461bcd60e51b815260206004820152600a6024820152694e4f545f41435449564560b01b6044820152606401610433565b60015434146107c65760405162461bcd60e51b815260206004820152600c60248201526b15d493d391d7d05353d5539560a21b6044820152606401610433565b6007545f90815260066020908152604080832033845290915290205460ff16156108285760405162461bcd60e51b81526020600482015260136024820152721053149150511657d0d3d39514925095551151606a1b6044820152606401610433565b6007545f9081526006602090815260408083203384529091528120805460ff1916600117905560098054349290610860908490610c62565b909155505060075460405134815233907ffa35a310d7113dddce1c275da946348e9aaebf9050b00b372033c4d84b0bd6eb9060200160405180910390a3565b60016002805460ff16908111156108b8576108b8610be9565b146108f25760405162461bcd60e51b815260206004820152600a6024820152694e4f545f41435449564560b01b6044820152606401610433565b6003546001546109029190610c7b565b600954146109415760405162461bcd60e51b815260206004820152600c60248201526b1413d517d393d517d195531360a21b6044820152606401610433565b5f60036007548154811061095757610957610c3a565b5f91825260208083209091015460098054908490556001600160a01b03909116808452600590925260408320805460ff191660019081179091556007805493955091939091906109a78385610c62565b90915550506040518281526001600160a01b0384169082907f131142dcf5bce3879d37bc28b79c50d49e42533779b0eb970c8ba71434d3bf5e9060200160405180910390a360085460075403610a2c576002805460ff1916811790556040517fbb1cdd0183cbed021520efe7440bb0e0076d62393d3b2fd57c03bc6b29a1a0d9905f90a15b5f836001600160a01b0316836040515f6040518083038185875af1925050503d805f8114610a75576040519150601f19603f3d011682016040523d82523d5f602084013e610a7a565b606091505b5050905080610abd5760405162461bcd60e51b815260206004820152600f60248201526e1514905394d1915497d19052531151608a1b6044820152606401610433565b50505050565b6003545f908210610b0b5760405162461bcd60e51b8152602060048201526012602482015271524f554e445f4f55545f4f465f52414e474560701b6044820152606401610433565b60038281548110610b1e57610b1e610c3a565b5f918252602090912001546001600160a01b031692915050565b80356001600160a01b0381168114610b4e575f80fd5b919050565b5f60208284031215610b63575f80fd5b610b6c82610b38565b9392505050565b602080825282518282018190525f9190848201906040850190845b81811015610bb35783516001600160a01b031683529284019291840191600101610b8e565b50909695505050505050565b5f8060408385031215610bd0575f80fd5b82359150610be060208401610b38565b90509250929050565b634e487b7160e01b5f52602160045260245ffd5b6020810160038310610c1d57634e487b7160e01b5f52602160045260245ffd5b91905290565b5f60208284031215610c33575f80fd5b5035919050565b634e487b7160e01b5f52603260045260245ffd5b634e487b7160e01b5f52601160045260245ffd5b80820180821115610c7557610c75610c4e565b92915050565b8082028115828204841417610c7557610c75610c4e56fea2646970667358221220475fbc31607dc423ff8c2c9c3ef171d80586ab1d1719e0758ad199ee9b52331d64736f6c634300081800330000000000000000000000000000000000000000000000000de0b6b3a7640000",
        "nonce": "0x0",
        "chainId": "0x7a69"
      },
      "additionalContracts": [],
      "isFixedGasLimit": false
    },
    {
      "hash": "0xb042c118f09cbf71d9356c734e0f23d87bf1fafd297303bd56f6d872276786b0",
      "transactionType": "CALL",
      "contractName": "ArisanChain",
      "contractAddress": "0x5fbdb2315678afecb367f032d93f642f64180aa3",
      "function": "addMember(address)",
      "arguments": [
        "0x70997970C51812dc3A010C7d01b50e0d17dc79C8"
      ],
      "transaction": {
        "from": "0xf39fd6e51aad88f6f4ce6ab8827279cfffb92266",
        "to": "0x5fbdb2315678afecb367f032d93f642f64180aa3",
        "gas": "0x1fb28",
        "value": "0x0",
        "input": "0xca6d56dc00000000000000000000000070997970c51812dc3a010c7d01b50e0d17dc79c8",
        "nonce": "0x1",
        "chainId": "0x7a69"
      },
      "additionalContracts": [],
      "isFixedGasLimit": false
    },
    {
      "hash": "0x7e19cd29601751b4b3c3ade771e5c9c6c83d31c48519fb6ec85c76ad1bd4a22a",
      "transactionType": "CALL",
      "contractName": "ArisanChain",
      "contractAddress": "0x5fbdb2315678afecb367f032d93f642f64180aa3",
      "function": "addMember(address)",
      "arguments": [
        "0x3C44CdDdB6a900fa2b585dd299e03d12FA4293BC"
      ],
      "transaction": {
        "from": "0xf39fd6e51aad88f6f4ce6ab8827279cfffb92266",
        "to": "0x5fbdb2315678afecb367f032d93f642f64180aa3",
        "gas": "0x19ed5",
        "value": "0x0",
        "input": "0xca6d56dc0000000000000000000000003c44cdddb6a900fa2b585dd299e03d12fa4293bc",
        "nonce": "0x2",
        "chainId": "0x7a69"
      },
      "additionalContracts": [],
      "isFixedGasLimit": false
    },
    {
      "hash": "0x30ef0efdbaaff1a65aa7c0a265e268021b8540d2217036efdc68ca0e39821a55",
      "transactionType": "CALL",
      "contractName": "ArisanChain",
      "contractAddress": "0x5fbdb2315678afecb367f032d93f642f64180aa3",
      "function": "addMember(address)",
      "arguments": [
        "0x90F79bf6EB2c4f870365E785982E1f101E93b906"
      ],
      "transaction": {
        "from": "0xf39fd6e51aad88f6f4ce6ab8827279cfffb92266",
        "to": "0x5fbdb2315678afecb367f032d93f642f64180aa3",
        "gas": "0x1b74d",
        "value": "0x0",
        "input": "0xca6d56dc00000000000000000000000090f79bf6eb2c4f870365e785982e1f101e93b906",
        "nonce": "0x3",
        "chainId": "0x7a69"
      },
      "additionalContracts": [],
      "isFixedGasLimit": false
    },
    {
      "hash": "0x351d26944645d6e2d13cac6a6c092c904f9e810fdabf2f67dcd49b025b570fa2",
      "transactionType": "CALL",
      "contractName": "ArisanChain",
      "contractAddress": "0x5fbdb2315678afecb367f032d93f642f64180aa3",
      "function": "addMember(address)",
      "arguments": [
        "0x15d34AAf54267DB7D7c367839AAf71A00a2C6A65"
      ],
      "transaction": {
        "from": "0xf39fd6e51aad88f6f4ce6ab8827279cfffb92266",
        "to": "0x5fbdb2315678afecb367f032d93f642f64180aa3",
        "gas": "0x1b74d",
        "value": "0x0",
        "input": "0xca6d56dc00000000000000000000000015d34aaf54267db7d7c367839aaf71a00a2c6a65",
        "nonce": "0x4",
        "chainId": "0x7a69"
      },
      "additionalContracts": [],
      "isFixedGasLimit": false
    },
    {
      "hash": "0x006b6655d80cd66b5ddc111682d0cff8260ae1a78893164f91c992c150cdebbe",
      "transactionType": "CALL",
      "contractName": "ArisanChain",
      "contractAddress": "0x5fbdb2315678afecb367f032d93f642f64180aa3",
      "function": "addMember(address)",
      "arguments": [
        "0x9965507D1a55bcC2695C58ba16FB37d819B0A4dc"
      ],
      "transaction": {
        "from": "0xf39fd6e51aad88f6f4ce6ab8827279cfffb92266",
        "to": "0x5fbdb2315678afecb367f032d93f642f64180aa3",
        "gas": "0x1b74d",
        "value": "0x0",
        "input": "0xca6d56dc0000000000000000000000009965507d1a55bcc2695c58ba16fb37d819b0a4dc",
        "nonce": "0x5",
        "chainId": "0x7a69"
      },
      "additionalContracts": [],
      "isFixedGasLimit": false
    },
    {
      "hash": "0x224b604675729675a25fdd4c74edda142ff0ced754bc8fd85421ebf74bef5611",
      "transactionType": "CALL",
      "contractName": "ArisanChain",
      "contractAddress": "0x5fbdb2315678afecb367f032d93f642f64180aa3",
      "function": "start()",
      "arguments": [],
      "transaction": {
        "from": "0xf39fd6e51aad88f6f4ce6ab8827279cfffb92266",
        "to": "0x5fbdb2315678afecb367f032d93f642f64180aa3",
        "gas": "0x18c55",
        "value": "0x0",
        "input": "0xbe9a6555",
        "nonce": "0x6",
        "chainId": "0x7a69"
      },
      "additionalContracts": [],
      "isFixedGasLimit": false
    }
  ],
  "receipts": [
    {
      "type": "0x2",
      "status": "0x1",
      "cumulativeGasUsed": "0xc5cbf",
      "logs": [],
      "logsBloom": "0x00000000000000000000000000000000000000000000000000000000000000000000000000000000000000000000000000000000000000000000000000000000000000000000000000000000000000000000000000000000000000000000000000000000000000000000000000000000000000000000000000000000000000000000000000000000000000000000000000000000000000000000000000000000000000000000000000000000000000000000000000000000000000000000000000000000000000000000000000000000000000000000000000000000000000000000000000000000000000000000000000000000000000000000000000000000",
      "transactionHash": "0x4afa1eee35c6085b5d03029601f5383c7135ae3ede2f76b4e93a9a5e0e5d6b27",
      "transactionIndex": "0x0",
      "blockHash": "0xc53880c349ae01bc67d8399db1d3fa4c0176520ccb0f6edcd2844e8cf7cbb335",
      "blockNumber": "0x1",
      "gasUsed": "0xc5cbf",
      "effectiveGasPrice": "0x3b9aca01",
      "blobGasPrice": "0x1",
      "from": "0xf39fd6e51aad88f6f4ce6ab8827279cfffb92266",
      "to": null,
      "contractAddress": "0x5fbdb2315678afecb367f032d93f642f64180aa3"
    },
    {
      "type": "0x2",
      "status": "0x1",
      "cumulativeGasUsed": "0x16f2d",
      "logs": [
        {
          "address": "0x5fbdb2315678afecb367f032d93f642f64180aa3",
          "topics": [
            "0xb251eb052afc73ffd02ffe85ad79990a8b3fed60d76dbc2fa2fdd7123dffd914",
            "0x00000000000000000000000070997970c51812dc3a010c7d01b50e0d17dc79c8"
          ],
          "data": "0x",
          "blockHash": "0x7d850f18f145db70c6fa4c022fc9b1571bb47c921d97ae4bbd59827e16cd705b",
          "blockNumber": "0x2",
          "blockTimestamp": "0x6a58fc85",
          "transactionHash": "0x30ef0efdbaaff1a65aa7c0a265e268021b8540d2217036efdc68ca0e39821a55",
          "transactionIndex": "0x0",
          "logIndex": "0x0",
          "removed": false
        }
      ],
      "logsBloom": "0x00000400000000000002000000000000000000000000000000000000000000000000000000000000000000000000000000000000000000000000000000000000000000000000000000000000000000000000000000000000000000000000000000000840000000000000000000000000000004000000000000000000000000000000080000000000000000000000000000000000000000000000000200000000000000000000000000000000000000000000000000000000000000000000000000000040000000000000000000000000000000000000000000000000000000000000000000000000000000000000000001000000000000000000000000000000",
      "transactionHash": "0x30ef0efdbaaff1a65aa7c0a265e268021b8540d2217036efdc68ca0e39821a55",
      "transactionIndex": "0x0",
      "blockHash": "0x7d850f18f145db70c6fa4c022fc9b1571bb47c921d97ae4bbd59827e16cd705b",
      "blockNumber": "0x2",
      "gasUsed": "0x16f2d",
      "effectiveGasPrice": "0x348e75a4",
      "blobGasPrice": "0x1",
      "from": "0xf39fd6e51aad88f6f4ce6ab8827279cfffb92266",
      "to": "0x5fbdb2315678afecb367f032d93f642f64180aa3",
      "contractAddress": null
    },
    {
      "type": "0x2",
      "status": "0x1",
      "cumulativeGasUsed": "0x29b82",
      "logs": [
        {
          "address": "0x5fbdb2315678afecb367f032d93f642f64180aa3",
          "topics": [
            "0xb251eb052afc73ffd02ffe85ad79990a8b3fed60d76dbc2fa2fdd7123dffd914",
            "0x0000000000000000000000003c44cdddb6a900fa2b585dd299e03d12fa4293bc"
          ],
          "data": "0x",
          "blockHash": "0x7d850f18f145db70c6fa4c022fc9b1571bb47c921d97ae4bbd59827e16cd705b",
          "blockNumber": "0x2",
          "blockTimestamp": "0x6a58fc85",
          "transactionHash": "0xb042c118f09cbf71d9356c734e0f23d87bf1fafd297303bd56f6d872276786b0",
          "transactionIndex": "0x1",
          "logIndex": "0x1",
          "removed": false
        }
      ],
      "logsBloom": "0x00000400000000000000000000000000000000000000000000000000000000000000000000000000000000000000000000000000000000000000000000100000000000000000000000000000000000000000000000000000000000000000000000000040000000000000000000000000000804000000000000000000000000000000080000000000000000000000000000000000000000000000000200000000000000000000200000000000000000000000000000000000000000000000000000000040000000000000000000000000000000000000000000000000000000000000000000000000000000000000000000000000000000000000000000000000",
      "transactionHash": "0xb042c118f09cbf71d9356c734e0f23d87bf1fafd297303bd56f6d872276786b0",
      "transactionIndex": "0x1",
      "blockHash": "0x7d850f18f145db70c6fa4c022fc9b1571bb47c921d97ae4bbd59827e16cd705b",
      "blockNumber": "0x2",
      "gasUsed": "0x12c55",
      "effectiveGasPrice": "0x348e75a4",
      "blobGasPrice": "0x1",
      "from": "0xf39fd6e51aad88f6f4ce6ab8827279cfffb92266",
      "to": "0x5fbdb2315678afecb367f032d93f642f64180aa3",
      "contractAddress": null
    },
    {
      "type": "0x2",
      "status": "0x1",
      "cumulativeGasUsed": "0x12c61",
      "logs": [
        {
          "address": "0x5fbdb2315678afecb367f032d93f642f64180aa3",
          "topics": [
            "0xb251eb052afc73ffd02ffe85ad79990a8b3fed60d76dbc2fa2fdd7123dffd914",
            "0x00000000000000000000000090f79bf6eb2c4f870365e785982e1f101e93b906"
          ],
          "data": "0x",
          "blockHash": "0x46972602200925d91081f744a67ff3a3da35f778096848ab6bafd24c4add1620",
          "blockNumber": "0x3",
          "blockTimestamp": "0x6a58fc85",
          "transactionHash": "0x006b6655d80cd66b5ddc111682d0cff8260ae1a78893164f91c992c150cdebbe",
          "transactionIndex": "0x0",
          "logIndex": "0x0",
          "removed": false
        }
      ],
      "logsBloom": "0x00000400000000000000000000000000000000000000000000000000000000000000000000000000000000000000000000000000000000000000000000000000000000000000000000000000000000000000000000000000000000000000000000000040000000000000000000000000000004000000000000000000000000000000080000000000000000000000000000000000000000000400000200000000000000000000000000000000000000000000000000000000000000000000000000000040000000000000000000000000400000000000000000000000000000000000000000000000000010000000000000000000000000000000000000000000",
      "transactionHash": "0x006b6655d80cd66b5ddc111682d0cff8260ae1a78893164f91c992c150cdebbe",
      "transactionIndex": "0x0",
      "blockHash": "0x46972602200925d91081f744a67ff3a3da35f778096848ab6bafd24c4add1620",
      "blockNumber": "0x3",
      "gasUsed": "0x12c61",
      "effectiveGasPrice": "0x2e0fcfbd",
      "blobGasPrice": "0x1",
      "from": "0xf39fd6e51aad88f6f4ce6ab8827279cfffb92266",
      "to": "0x5fbdb2315678afecb367f032d93f642f64180aa3",
      "contractAddress": null
    },
    {
      "type": "0x2",
      "status": "0x1",
      "cumulativeGasUsed": "0x12c61",
      "logs": [
        {
          "address": "0x5fbdb2315678afecb367f032d93f642f64180aa3",
          "topics": [
            "0xb251eb052afc73ffd02ffe85ad79990a8b3fed60d76dbc2fa2fdd7123dffd914",
            "0x00000000000000000000000015d34aaf54267db7d7c367839aaf71a00a2c6a65"
          ],
          "data": "0x",
          "blockHash": "0xc675b17b2848d2d0b41a847d8da1fbd7b9021c7d166d8ab73857d5be48c4fc25",
          "blockNumber": "0x4",
          "blockTimestamp": "0x6a58fc85",
          "transactionHash": "0x224b604675729675a25fdd4c74edda142ff0ced754bc8fd85421ebf74bef5611",
          "transactionIndex": "0x0",
          "logIndex": "0x0",
          "removed": false
        }
      ],
      "logsBloom": "0x00000400040000000000000000000000000000000000000000000000000000000000000000000000000000000000000000000000000000000000000000000000000000000000000000000000000000000000000000000000000000000000000000000040000000000000000000000000000004000000000000000000000000000000080000000000000000000000000000000000000000000000000300000000000000000000000000000000000000000000000000000000000000000000000000000040000000000000000000000000000000000000000000000000000004000000000000000000000000000000000000000000000000000000000000000000",
      "transactionHash": "0x224b604675729675a25fdd4c74edda142ff0ced754bc8fd85421ebf74bef5611",
      "transactionIndex": "0x0",
      "blockHash": "0xc675b17b2848d2d0b41a847d8da1fbd7b9021c7d166d8ab73857d5be48c4fc25",
      "blockNumber": "0x4",
      "gasUsed": "0x12c61",
      "effectiveGasPrice": "0x2855642f",
      "blobGasPrice": "0x1",
      "from": "0xf39fd6e51aad88f6f4ce6ab8827279cfffb92266",
      "to": "0x5fbdb2315678afecb367f032d93f642f64180aa3",
      "contractAddress": null
    },
    {
      "type": "0x2",
      "status": "0x1",
      "cumulativeGasUsed": "0x258c2",
      "logs": [
        {
          "address": "0x5fbdb2315678afecb367f032d93f642f64180aa3",
          "topics": [
            "0xb251eb052afc73ffd02ffe85ad79990a8b3fed60d76dbc2fa2fdd7123dffd914",
            "0x0000000000000000000000009965507d1a55bcc2695c58ba16fb37d819b0a4dc"
          ],
          "data": "0x",
          "blockHash": "0xc675b17b2848d2d0b41a847d8da1fbd7b9021c7d166d8ab73857d5be48c4fc25",
          "blockNumber": "0x4",
          "blockTimestamp": "0x6a58fc85",
          "transactionHash": "0x7e19cd29601751b4b3c3ade771e5c9c6c83d31c48519fb6ec85c76ad1bd4a22a",
          "transactionIndex": "0x1",
          "logIndex": "0x1",
          "removed": false
        }
      ],
      "logsBloom": "0x00000404000000000000000000000000000000000000000000000000000000000000000000000000000000000000000000000000000000000000000000000000000000000000000000000000000000000000000000008000000000000000000000000040000000000000000000000000000004000000000000000000000000000000080000000000000000000000000000000000000000000000000200000000000000000000000000000000000000000000000000000000000000000000000000000040800000000000000000000000000000000000000000000000000000000000000000000000000000000000000000000000000000000000000000000000",
      "transactionHash": "0x7e19cd29601751b4b3c3ade771e5c9c6c83d31c48519fb6ec85c76ad1bd4a22a",
      "transactionIndex": "0x1",
      "blockHash": "0xc675b17b2848d2d0b41a847d8da1fbd7b9021c7d166d8ab73857d5be48c4fc25",
      "blockNumber": "0x4",
      "gasUsed": "0x12c61",
      "effectiveGasPrice": "0x2855642f",
      "blobGasPrice": "0x1",
      "from": "0xf39fd6e51aad88f6f4ce6ab8827279cfffb92266",
      "to": "0x5fbdb2315678afecb367f032d93f642f64180aa3",
      "contractAddress": null
    },
    {
      "type": "0x2",
      "status": "0x1",
      "cumulativeGasUsed": "0x377b2",
      "logs": [
        {
          "address": "0x5fbdb2315678afecb367f032d93f642f64180aa3",
          "topics": [
            "0x20f56a90cb3179448dd56850a193dc824d30149cae0f0f3507dd89dfd9e91a2c"
          ],
          "data": "0x00000000000000000000000000000000000000000000000000000000000000050000000000000000000000000000000000000000000000000de0b6b3a7640000",
          "blockHash": "0xc675b17b2848d2d0b41a847d8da1fbd7b9021c7d166d8ab73857d5be48c4fc25",
          "blockNumber": "0x4",
          "blockTimestamp": "0x6a58fc85",
          "transactionHash": "0x351d26944645d6e2d13cac6a6c092c904f9e810fdabf2f67dcd49b025b570fa2",
          "transactionIndex": "0x2",
          "logIndex": "0x2",
          "removed": false
        }
      ],
      "logsBloom": "0x00000000000000000000000000000000000000000000000000000000000000000000000000000000000000000000000000000000000000000000000000000000000000000000000000000000000000000000000000000000000000000000000000000040000000000400000000000000000000000000000000000000000000000000000000000000000000000000000000000000000000000000000200000000000000000000000000000000000000000000000000000000000000010000000000000040000000000000000000000000000000000000000000000000000000000000000000000000000000000000000000000000000000000000000000100000",
      "transactionHash": "0x351d26944645d6e2d13cac6a6c092c904f9e810fdabf2f67dcd49b025b570fa2",
      "transactionIndex": "0x2",
      "blockHash": "0xc675b17b2848d2d0b41a847d8da1fbd7b9021c7d166d8ab73857d5be48c4fc25",
      "blockNumber": "0x4",
      "gasUsed": "0x11ef0",
      "effectiveGasPrice": "0x2855642f",
      "blobGasPrice": "0x1",
      "from": "0xf39fd6e51aad88f6f4ce6ab8827279cfffb92266",
      "to": "0x5fbdb2315678afecb367f032d93f642f64180aa3",
      "contractAddress": null
    }
  ],
  "libraries": [],
  "pending": [],
  "returns": {},
  "timestamp": 1784216709438,
  "chain": 31337,
  "commit": null
}